:020000040000fa
:10000000f0ff0320d5e501005b1f0200072d020071
:100010006b4702002b4e02006756020000000000f2
:10002000000000000000000000000000df150200da
:10003000bb3f020000000000df150200df150200d8
:10004000df150200df150200df150200df150200d8
:10005000df150200df150200df150200df150200c8
:10006000df150200df150200df150200df150200b8
:10007000df150200df150200df150200df150200a8
:10008000df150200df150200df15020039750200de
:10009000df150200df150200df150200df15020088
:1000a000df150200df150200df150200df15020078
:1000b000df150200df150200df150200df15020068
:1000c000df150200df150200df150200df15020058
:1000d000df150200df150200df150200df15020048
:1000e000df150200df150200000000000000000024
:1000f00000000000df150200df150200df1502001e
:10010000df150200df150200df150200df15020017
:10011000df150200df150200dda30100dda30100f1
:10012000dda30100dda30100df150200df150200e1
:10013000df150200df150200a9520100a9520100db
:10014000a9520100a9520100df150200df150200cb
:10015000df150200df150200df150200df150200c7
:10016000df150200df150200df150200df150200b7
:10017000df150200df150200df150200df150200a7
:10018000df150200df150200df150200df15020097
:10019000df150200df150200df150200df15020087
:1001a000df150200df150200df150200df15020077
:1001b000df150200df150200df150200df15020067
:1001c000df150200df150200df150200df15020057
:1001d000df150200df150200df150200df15020047
:1001e000df150200df150200df150200df15020037
:1001f000df150200df15020015630200df150200a3
:10020000df150200df150200df150200df15020016
:10021000df150200df150200df150200df15020006
:10022000df150200df150200df150200df150200f6
:10023000df150200df150200df150200df150200e6
:10024000df150200df150200df150200df150200d6
:10025000df150200df150200df150200df150200c6
:04026000df150200a4
:020000040000fa
:10026400f8b500bff8bc08bc9e467047e13f0200e9
:10027400f8b500bff8bc08bc9e467047bd3f0200fd
:020000040000fa
:0802840018fb0000010000005e
:020000040000fa
:10028c0055736167653a206d6163696e666f200d09
:10029c000a00000045783a206d6163696e666f2034
:1002ac000d0a0000496e746572666163653a20251b
:1002bc007320447269766572205374617469737427
:1002cc006963730d0a0000000d0a205265636569ad
:1002dc00766520537461746973746963730d0a00d5
:1002ec0009206e52784f6b5061636b6574733a20c2
:1002fc0025640d0a09206e527850656e644275664d
:10030c00666572733a2025640d0a09206e52785383
:10031c0063686564427566666572733a2025640d80
:10032c000a00000009206e52784572726f7250619b
:10033c00636b6574733a2025640d0a09206e52783c
:10034c00467261676d656e744572726f72733a2096
:10035c0025640d0a09206e5278427566664e6f74dc
:10036c00417661696c61626c653a2025640d0a0006
:10037c000d0a205472616e736d697420537461742c
:10038c006973746963730d0a0000000009206e54d0
:10039c00784f6b5061636b6574733a2025640d0a5a
:1003ac0009206e547850656e64427566666572738a
:1003bc003a2025640d0a09206e54784572726f72ca
:1003cc005061636b6574733a2025640d0a09206ec5
:1003dc005478517565756546756c6c3a2025640dbd
:1003ec000a0d0a00096e6f7420737570706f727449
:1003fc0065640d0a00000000496e746572666163e5
:10040c00653a2025732048617264776172652052c9
:10041c0065676973746572205374617475730d0a22
:10042c0000000000092025733a20307825780d0a49
:10043c0000000000656e61626c656400656e61624f
:10044c006c65000064697361626c65640000000097
:10045c0064697361626c650055736167653a202548
:10046c0073203c696e746572666163653e203c6ff7
:10047c006e2f6f66663e200d0a00000045783a200c
:10048c002573205049433332494e54206f6e200d52
:10049c000a000000556e6b6e6f776e20696e746586
:1004ac0072666163650d0a006f6e00006f66660010
:1004bc00556e6b6e6f776e206f7074696f6e0d0a70
:1004cc000000000025732025730d0a004661696c3d
:1004dc00656420746f2025732025730d0a000000bd
:1004ec00556e6b6e6f776e207365727669636520df
:1004fc0025730d0a000000006e6f6e650000000091
:10050c00701e000001000000bc1900000200000079
:10051c00b404000003000000b80400000300000055
:10052c00741e00000400000055736167653a206476
:10053c006e7363203c64656c2f696e666f2f6f6ef3
:10054c002f6f66662f6c6f6f6b75703e200d0a00f7
:10055c0055736167653a202573203c6f6e2f6f666b
:10056c00663e203c696e746572666163653e203c34
:10057c007374726963742f707265663e2f3c636c82
:10058c006561723e200d0a0045783a202573206f74
:10059c006e20657468300d0a000000007374726977
:1005ac00637400007072656600000000636c656126
:1005bc007200000055736167653a20646e736320a6
:1005cc006c6f6f6b7570203c747970653e203c6865
:1005dc006f73744e616d653e200d0a0048656c703a
:1005ec003a203c686f73744e616d653e2855524cd1
:1005fc0029202d206c6f6f6b20757020666f722018
:10060c00686f73746e616d650d0a000048656c70df
:10061c003a203c747970653e203a2061206f72203c
:10062c004120666f72204950763420616464726593
:10063c007373206c6f6f6b75700d0a0048656c706e
:10064c003a203c747970653e203a206161616120ea
:10065c006f72204141414120666f722049507636bd
:10066c002061646472657373206c6f6f6b75700db1
:10067c000a00000048656c703a203c747970653e45
:10068c00203a20616e7920666f7220626f74682048
:10069c004950763420616e6420495076362061646e
:1006ac006472657373206c6f6f6b75700d0a00004c
:1006bc00646e7363206c6f6f6b75703a20636f6d33
:1006cc006d616e6420696e2070726f6772657373f2
:1006dc002e205265747279206c617465722e0d0a2d
:1006ec000000000041000000610000004141414158
:1006fc00000000006161616100000000414e590082
:10070c00616e7900646e7363206c6f6f6b75703af9
:10071c00205b25735d204c6f6f6b75702054797066
:10072c0065206e6f7420737570706f727465642eb3
:10073c000d0a0000646e7363206c6f6f6b75703afa
:10074c0020486f7374206e616d6520746f6f206c20
:10075c006f6e672e2052657472792e0d0a000000a0
:10076c00646e7363206c6f6f6b75703a2072657377
:10077c006f6c76696e6720686f73743a20257320ee
:10078c00666f7220747970653a2573200d0a00002b
:10079c0055736167653a20646e73632064656c20e1
:1007ac003c686f73744e616d653e7c616c6c200da2
:1007bc000a00000048656c703a203c686f73744ef8
:1007cc00616d653e2855524c29202d2052656d6f68
:1007dc0076652074686520656e7472792069662070
:1007ec00657869737473200d0a00000048656c709d
:1007fc003a20616c6c202d2052656d6f76652061fe
:10080c006c6c20746865207265736f6c76656420ff
:10081c00656e747279200d0a00000000616c6c002a
:10082c005b25735d206e6f742070617274206f662f
:10083c002074686520444e532043616368652065cd
:10084c006e747279200d0a00496e636f6d706c6561
:10085c00746520636f6d6d616e64200d0a0000007d
:10086c0055736167653a20646e736320696e666fb9
:10087c00200d0a0048656c703a20646973706c61d5
:10088c00792074686520444e532063616368652049
:10089c00656e7472792064657461696c73200d0add
:1008ac0000000000444e5320436c69656e7420694f
:1008bc007320646f776e210d0a000000444e5320a4
:1008cc00436c69656e74204946202d2053747269ff
:1008dc0063743a2025732c205072656665727265bc
:1008ec00643a2025730d0a00444e5320436c69650d
:1008fc006e74202d2074696d653a2025642c20704f
:10090c00656e64696e673a2025642c20637572727b
:10091c00656e743a2025642c20746f74616c3a20d7
:10092c0025640d0a00000000486f73746e616d65dc
:10093c00203d202573200d0a54696d656f75742058
:10094c003d202564200d0a0049507634203d257346
:10095c000d0a000049507636203d2025730d0a0003
:10096c002d2d2d2d2d2d2d2d2d2d2d2d2d2d2d2dab
:10097c002d2d2d2d2d2d2d2d2d2d2d2d2d2d2d2d9b
:10098c002d2d2d2d2d2d2d2d2d2d2d2d2d2d2d2d8b
:10099c002d2d2d2d0d0a00004e6f20444e5320435b
:1009ac006c69656e7420436163686520656e747252
:1009bc00696573200d0a0000496e76616c696420cc
:1009cc00496e70757420436f6d6d616e64203a5b77
:1009dc00202573205d200d0a00000000557361670f
:1009ec00653a20646e73732064656c203c686f7389
:1009fc00744e616d653e203c4950547970653e20c3
:100a0c003c782e782e782e783e20200d0a0000009f
:100a1c0048656c703a20686f73744e616d65202d5b
:100a2c002055524c202c20495054797065202d2093
:100a3c003420666f7220497076342061646472656c
:100a4c00737320616e64203620666f722049707655
:100a5c00362061646472657373200d0a0000000017
:100a6c0048656c703a204f6e652049502061646473
:100a7c0072657373207065722055524c206174201e
:100a8c00612074696d652077696c6c2062652064e7
:100a9c00656c65746564200d0a00000045783a2089
:100aac00646e73732064656c207777772e78797a0f
:100abc002e636f6d20342031302e32302e33302e99
:100acc00343020200d0a000045783a20646e737390
:100adc002064656c207777772e6162632e636f6d6f
:100aec00203620323030313a3a31303120200d0a64
:100afc000000000055736167653a20646e737320c3
:100b0c00616464203c686f73744e616d653e203c7b
:100b1c004950547970653e203c782e782e782e788a
:100b2c003e203c6c69666554696d653e200d0a007b
:100b3c0048656c703a204c69666554696d65202d6a
:100b4c0020546865206c6966652074696d65206940
:100b5c006e205365636f6e6420666f7220656163ef
:100b6c006820656e74727920746f206265207573cd
:100b7c006564200d0a00000048656c703a204f6ec9
:100b8c0065204950206164647265737320706572ce
:100b9c002055524c20617420612074696d6520775a
:100bac00696c6c206265206164646564200d0a00c8
:100bbc0045783a20646e737320616464207777778c
:100bcc002e78797a2e636f6d20342031302e3230ae
:100bdc002e33302e343020313230200d0a000000fc
:100bec0045783a20646e737320616464207777775c
:100bfc002e6162632e636f6d203620323030313ab5
:100c0c003a31303120313230200d0a0020486f73d8
:100c1c00746e616d65206c656e6774682073686fa7
:100c2c00756c64206e6f74206265206d6f72652028
:100c3c007468616e205b25645d0d0a00496e7661f7
:100c4c006c696420495076342061646472657373f6
:100c5c0020737472696e67200d0a00005468652059
:100c6c0041646472657373206973206e6f742070b5
:100c7c00617274206f662074686520444e53204363
:100c8c006163686520656e747279200d0a0000003e
:100c9c004e6f206d656d6f727920617661696c6144
:100cac00626c65200d0a00004e6f207370616365e5
:100cbc0020746f20616464205b25735d20656e7405
:100ccc007279200d0a0000004661696c656420741d
:100cdc006f20616464205b25735d20656e7472798e
:100cec00200d0a00641e0000030000006c1e0000b2
:100cfc0000000000701e000001000000bc19000084
:100d0c000200000055736167653a20646e737320ae
:100d1c003c736572766963652f6164642f64656cde
:100d2c002f696e666f3e200d0a00000055736167d7
:100d3c00653a646e73732073657276696365203ce3
:100d4c00696e746572666163653e203c6f6e2f6fd1
:100d5c0066663e200d0a000045783a20646e737377
:100d6c002073657276696365205049433332494e6e
:100d7c0054206f6e200d0a002573202573202066e9
:100d8c006f7220696e74657266616365205b257392
:100d9c005d200d0a000000004661696c65642074da
:100dac006f20257320257320666f7220696e746521
:100dbc007266616365205b25735d0d0a000000009f
:100dcc0055736167653a20646e737365727620693a
:100ddc006e666f203c686f73746e616d653e207c2f
:100dec00203c616c6c3e0d0a00000000486f73746f
:100dfc004e616d6520202020202020204950763423
:100e0c002f49507636436f756e740d0a0000000042
:100e1c0025732020202020202025640d0a000000ae
:100e2c004e6f20444e532053657276657220436199
:100e3c0063686520656e747279200d0a00000000ed
:100e4c004e6f204d656d6f727920697320617661ec
:100e5c00696c61626c65200d0a000000486f737448
:100e6c004e616d650909495076344164647265734d
:100e7c0073090954544c54696d65200d0a00000027
:100e8c002573090925642e25642e25642e256409f5
:100e9c000925640d0a0000005b25735d204e6f2050
:100eac004970763420416464726573732077697479
:100ebc006820696e20444e53204361636865206549
:100ecc006e747279200d0a000d0a00006172703a7e
:100edc00206164647265737320616c7265616479fe
:100eec00207175657565640d0a0000006172703ab9
:100efc002061646472657373206e65776c79207100
:100f0c0075657565640d0a006172703a20717565be
:100f1c0075652066756c6c2f6572726f720d0a00a8
:100f2c0055736167653a20617270203c696e746517
:100f3c0072666163653e203c722f712f642f6c3e8c
:100f4c00203c6970416464723e200d0a0000000070
:100f5c0045783a20617270205049433332494e54df
:100f6c002072203139322e3136382e312e31303537
:100f7c00200d0a006c0000006172703a202564207c
:100f8c00736c6f747320696e207468652063616381
:100f9c0068650d0a000000006172703a20495076b5
:100fac003420616464726573733a20257300000009
:100fbc002c204d414320416464726573733a2025a3
:100fcc00730000002c20636f6d706c6574650d0ae6
:100fdc00000000002c207065726d616e656e740de2
:100fec000a0000006172703a204950763420616426
:100ffc0064726573733a2025732c20717565756561
:10100c00640d0a00496e76616c6964204950206158
:10101c0064647265737320737472696e67200d0a51
:10102c0000000000720000006172703a207265735b
:10103c006f6c766564202d20495076342061646491
:10104c00726573733a2025732c204d414320416403
:10105c0064726573733a2025730d0a0071000000e9
:10106c006172703a20495076342061646472657301
:10107c00733a2025732c204d4143204164647265e2
:10108c0073733a2025730d0a000000006172703ae8
:10109c00206e6f207375636820656e7472790d0a0b
:1010ac0000000000640000006172703a2072656def
:1010bc006f7665642025730d0a0000006172703a2a
:1010cc0020556e6b6e6f776e206f7074696f6e0d3e
:1010dc000a00000050696e673a20646f6e652e201e
:1010ec0053656e7420256420726571756573747315
:1010fc002c207265636569766564202564207265b1
:10110c00706c6965732e0d0a0000000050696e67e3
:10111c002055736167653a2070696e67203c737463
:10112c006f703e2f3c6e616d652f616464726573e8
:10113c00733e203c6920696e746572666163653e1e
:10114c00203c6e206e50696e67733e203c74206d9f
:10115c0073506572696f643e203c732073697a65c5
:10116c003e0d0a0073746f700000000050696e67ca
:10117c003a20636f6d6d616e6420696e2070726fc2
:10118c0067726573732e205265747279206c61746a
:10119c0065722e0d0a00000050696e673a20486f88
:1011ac007374206e616d6520746f6f206c6f6e6749
:1011bc002e2052657472792e0d0a00006900000011
:1011cc006e000000740000007300000050696e6730
:1011dc003a20446174612073697a6520746f6f20c2
:1011ec006269672e204d61783a2025642e20526565
:1011fc007472790d0a00000050696e673a20556ec2
:10120c006b6e6f776e20706172616d657465720db7
:10121c000a00000050696e673a207265736f6c7635
:10122c00696e6720686f73743a2025730d0a00008d
:10123c0055736167653a206468637073696e666f95
:10124c00203c696e746572666163653e200d0a0010
:10125c0045783a206468637073696e666f205049f4
:10126c00433332494e54200d0a000000556e6b6e0c
:10127c006f776e20696e746572666163652073703a
:10128c0065636966696564200d0a00004d41432061
:10129c0041646472657373090949504164647265f1
:1012ac007373090952656d61696e696e674c65618e
:1012bc00736554696d65200d0a000000200a0d202d
:1012cc004e6f206d6f726520656e7472792070722e
:1012dc006573656e74200d0a000000002573000014
:1012ec0009257320000000000925642053656373f1
:1012fc000d0a0000556e6b6e6f776e20686561701d
:10130c0020747970652e205573653a205b312c2042
:10131c0025645d0d0a0000004e6f20686561702029
:10132c00696e666f2065786973747320666f7220be
:10133c00747970653a202573210d0a004865617037
:10134c0020747970653a2025732e20496e69746972
:10135c00616c2063726561746564206865617020de
:10136c0073697a653a2025642042797465730d0a95
:10137c0000000000416c6c6f6361626c6520626cf4
:10138c006f636b20686561702073697a653a2025fc
:10139c00642042797465730d0a000000416c6c2066
:1013ac00617661696c61626c65206865617020733f
:1013bc00697a653a2025642042797465732c20681b
:1013cc006967682077617465726d61726b3a20256c
:1013dc00640d0a004c61737420686561702065723d
:1013ec00726f723a20307825780d0a004e6f2054b7
:1013fc007261636520696e666f20657869737473ba
:10140c002e0d0a00537461636b2075702066616940
:10141c006c65640d0a000000537461636b20757079
:10142c00207375636365656465640d0a00000000d4
:10143c0055736167653a20737461636b203c7570fa
:10144c002f646f776e3e203c7072657365727665a3
:10145c003e0d0a0045783a20737461636b20646f0b
:10146c00776e2070726573657276650d0a000000e8
:10147c0075700000537461636b20616c72656164fc
:10148c0079207570210d0a005475726e20537461a9
:10149c00636b20646f776e20616e64207468656e78
:1014ac00207570210d0a00005265737461727469a5
:1014bc006e672074686520737461636b2077697440
:1014cc006820256420696e74657266616365287393
:1014dc00290d0a00646f776e00000000537461637d
:1014ec006b20646f776e3a2063616e6e6f74206749
:1014fc006574206120737461636b2068616e646c29
:10150c00650d0a00537461636b20646f776e2073f2
:10151c0075636365656465640d0a000055736167e6
:10152c00653a206966203c696e7465726661636514
:10153c003e203c646f776e2f75703e200d0a0000c4
:10154c0045783a206966205049433332494e54203d
:10155c00646f776e200d0a005468697320696e748d
:10156c0065726661636520616c7265616479207572
:10157c00700d0a005468697320696e746572666137
:10158c00636520616c726561647920646f776e0da0
:10159c000a00000057726f6e6720706172616d6592
:1015ac0074657220737065636966696564200d0ae1
:1015bc00000000004f7065726174696f6e20737566
:1015cc00636365737366756c210d0a004f706572e9
:1015dc006174696f6e206661696c6564210d0a0027
:1015ec0055736167653a207365746d6163203c695e
:1015fc006e746572666163653e203c783a783a7821
:10160c003a783a783a783e200d0a000045783a202c
:10161c007365746d6163205049433332494e5420d5
:10162c0061613a62623a63633a64643a65653a6648
:10163c0066200d0a00000000617267765b325d3a2d
:10164c002025730d0a000000496e76616c696420d8
:10165c004d414320616464726573732073747269c5
:10166c006e67200d0a000000536574204d41432025
:10167c0061646472657373206661696c65640d0adc
:10168c00000000005365742042494f53204e616d99
:10169c0065204f4b0d0a00005365742042494f538f
:1016ac00204e616d65206661696c65640d0a0000f1
:1016bc0055736167653a2073657462696f73203c7a
:1016cc00696e746572666163653e203c782e782e77
:1016dc00782e783e200d0a0045783a2073657462a6
:1016ec00696f73205049433332494e54204d43485f
:1016fc0050424f4152445f3239200d0a0000000025
:10170c0053657420676174657761792061646472d4
:10171c00657373204f4b0d0a000000005365742055
:10172c006761746577617920616464726573732095
:10173c006661696c65640d0a000000005573616791
:10174c00653a207365746777203c696e74657266c0
:10175c006163653e203c697076342f362061646489
:10176c00726573733e203c76616c696454696d6577
:10177c003e200d0a0000000045783a20736574671e
:10178c0077205049433332494e54203139322e316f
:10179c0036382e302e31200d0a000000536574208f
:1017ac0069702061646472657373204f4b0d0a007d
:1017bc00536574206970206164647265737320666c
:1017cc0061696c65640d0a0055736167653a207335
:1017dc0065746970203c696e746572666163653e00
:1017ec00203c697076342f362061646472657373a3
:1017fc003e203c697076346d61736b2f6970763660
:10180c0020707265666978206c656e3e0d0a00006a
:10181c0045783a20736574697020504943333249d6
:10182c004e54203139322e3136382e302e3820326b
:10183c0035352e3235352e3235352e30200d0a0009
:10184c00416e20616464726573732073657276698e
:10185c00636520697320616c7265616479207275af
:10186c006e6e696e672e2053746f7020444843501f
:10187c002c205a434c4c2c206574632e20666972c4
:10188c0073740d0a00000000496e76616c69642067
:10189c004950206d61736b20737472696e67200df3
:1018ac000a0000004e6f207375636820696e7465c2
:1018bc0072666163652069732075700d0a00000003
:1018cc0055736167653a20736574646e73203c6967
:1018dc006e746572666163653e203c782e782e7856
:1018ec002e783e200d0a000045783a20736574640a
:1018fc006e73205049433332494e54203235352ec5
:10190c003235352e3235352e30200d0a00000000d0
:10191c0053657420444e5320616464726573732064
:10192c006661696c65640d0a000000006e6f7420be
:10193c00676976656e000000737563636573730089
:10194c006661696c0000000055736167653a20257b
:10195c0073203c696e746572666163653e203c6ff2
:10196c006e2f6f66662f72656e65772f7265717557
:10197c006573742f696e666f3e200d0a00000000bf
:10198c0072656e6577000000726571756573740021
:10199c0052657175657374206e6565647320616e34
:1019ac0020495020616464726573730d0a00000055
:1019bc00696e666f000000004448435020737461e8
:1019cc007475733a2025642028202564203d3d2021
:1019dc00426f756e64292c2074696d653a202564fc
:1019ec000d0a000044484350206c656173652073f8
:1019fc00746172743a2025642c2064757261746968
:101a0c006f6e3a202564730d0a0000004448435061
:101a1c002072656e65772074696d653a2025642c9b
:101a2c0020726562696e642074696d653a20256464
:101a3c000d0a00004448435020616464726573735e
:101a4c003a2025730d0a00004448435020736572f8
:101a5c007665723a2025730d0a0000004448435005
:101a6c0020626f6f74206e616d653a2025730d0acc
:101a7c0000000000444843503a206661696c65647c
:101a8c0020746f2067657420696e666f0d0a000004
:101a9c0025732025732025730d0a0000737563636d
:101aac0065737366756c00006661696c6564210012
:101abc004e6f6e65000000007365740067657400fe
:101acc0044656661756c7420696e746572666163d9
:101adc0065207365742025730d0a000044656661ea
:101aec00756c7420696e74657266616365206973c8
:101afc003a2025730d0a000055736167653a20641e
:101b0c0065666e6574207365742f676574203c6917
:101b1c006e746572666163653e0d0a0045783a2005
:101b2c006465666e65742073657420657468300d29
:101b3c000a00000055500000444f574e00000000b2
:101b4c0052656164790000004e6f742052656164c7
:101b5c007900000064656661756c742049502061e1
:101b6c0064647265737300006468637073000000d2
:101b7c0055736167653a206e6574696e666f0d0a00
:101b8c000000000045783a206e6574696e666f0d32
:101b9c000a0000002d2d2d2d2d2d2d2d2d2d204904
:101bac006e74657266616365203c25732f25733ee8
:101bbc00202d2d2d2d2d2d2d2d2d2d200d0a000000
:101bcc00496e7465726661636520697320646f7712
:101bdc006e0d0a00486f7374204e616d653a2025b6
:101bec0073202d204e424e532064697361626c65e4
:101bfc0064200d0a000000004950763420416464d2
:101c0c00726573733a2025730d0a00004d61736b76
:101c1c003a2025730d0a0000476174657761793aa3
:101c2c002025730d0a000000444e533a2025730df5
:101c3c000a0000004d414320416464726573733a9d
:101c4c002025730d0a0000006468637020697320fe
:101c5c0025730d0a000000004c696e6b206973201f
:101c6c0025730d0a000000005374617475733a20db
:101c7c0025730d0a0000000064686370000000000a
:101c8c002573206973204f4e0d0a000050696e6752
:101c9c003a2077726f6e67207265706c792072656e
:101cac006365697665642e204d61736b3a203078dc
:101cbc002532780d0a00000050696e673a20726573
:101ccc00706c795b25645d2066726f6d2025733aac
:101cdc002074696d65203d2025646d730d0a00002c
:101cec0050696e673a20444e53206661696c757278
:101cfc006520666f722025730d0a0000444e532038
:101d0c004c6f6f6b75703a20444e53206661696c52
:101d1c0075726520666f722025730d0a0000000035
:101d2c00444e53204c6f6f6b75703a207265717511
:101d3c006573742074696d656f75742e0d0a0000df
:101d4c004c6f6f6b757020416e737765723a0d0a2c
:101d5c002d2d2d2d2d2d2d2d2d2d2d2d2d2d2d2da7
:101d6c002d2d2d2d2d2d0d0a000000004e6f204c19
:101d7c006f6f6b757020656e74727920666f722050
:101d8c005b25735d0d0a00005b25735d20412049c6
:101d9c005076342041646472657373203a20256454
:101dac002e25642e25642e25640d0a005b25735d9b
:101dbc00204141414120495076362041646472658e
:101dcc007373203a25730d0a000000003a207374d7
:101ddc0061636b20636f6d6d616e64730000000056
:101dec0074637069700000004661696c65642074ee
:101dfc006f206372656174652054435049502043d1
:101e0c006f6d6d616e64730d0a0000005443504990
:101e1c005020636f6d6d616e6473207461736b2001
:101e2c00726567697374726174696f6e206661693b
:101e3c006c65640d0a000000696e7465726e616ced
:101e4c0000000000706f6f6c000000006578746516
:101e5c00726e616c000000007365727669636500d8
:101e6c006164640064656c006c6f6f6b757000006e
:101e7c006e6574696e666f003a20476574206e65f6
:101e8c0074776f726b20696e666f726d6174696fb7
:101e9c006e0000006465666e657400003a20536540
:101eac00742f4765742064656661756c7420696e67
:101ebc0074657266616365003a2044484350206340
:101ecc006c69656e7420636f6d6d616e6473000078
:101edc003a205475726e20444843502073657276d4
:101eec006572206f6e2f6f66660000007a636c6cf3
:101efc00000000003a205475726e205a434c4c205e
:101f0c006f6e2f6f66660000736574646e730000ed
:101f1c003a2053657420444e532061646472657397
:101f2c007300000073657469700000003a205365fb
:101f3c0074204950206164647265737320616e640f
:101f4c00206d61736b00000073657467770000008f
:101f5c003a20536574204761746577617920616418
:101f6c00647265737300000073657462696f73004b
:101f7c003a2053657420686f73742773204e657410
:101f8c0042494f53206e616d650000007365746d9e
:101f9c00616300003a20536574204d414320616415
:101fac006472657373000000696600003a20427227
:101fbc00696e6720616e20696e7465726661636517
:101fcc002075702f646f776e00000000737461636e
:101fdc006b0000003a20537461636b207475726e51
:101fec00206f6e2f6f66660068656170696e666f34
:101ffc00000000003a20436865636b2068656170df
:10200c0020737461747573006468637073696e66b1
:10201c006f0000003a20446973706c617920444869
:10202c00435020536572766572204c656173652050
:10203c0044657461696c730070696e670000000020
:10204c003a2050696e6720616e20495020616464ab
:10205c007265737300000000617270003a20415287
:10206c005020636f6d6d616e64730000646e7373ea
:10207c00000000003a20444e53207365727665725e
:10208c0020636f6d6d616e6473000000646e73632a
:10209c00000000003a20444e5320636c69656e7456
:1020ac0020636f6d6d616e64730000006d61636918
:1020bc006e666f003a20436865636b204d41432088
:0c20cc00737461746973746963730000bd
:020000040000fa
:1020d8002de9f04fd7b004462022002149a826f068
:1020e80081facb4fdff8388308f5b4730593dff82e
:1020f800349300f085bfb4f9540026f03ef9002867
:1021080000f03485636c2361012384f84230ff2397
:1021180084f85130002584f8505022f031fc824672
:102128008b4626f01dfba9fb00231b0c03eb430386
:10213800c3eb0316b74a00235046594623f08cffd9
:102148003044a0604ff0ff33e3602560a4f84850a6
:10215800a4f8525084f83e50af4b1b7813f0010f8f
:1021680061d1b4f954000022009213460a2125f0e7
:102178008ff84ff6ff7398425dd022f001fc82463b
:102188008b4626f0edfaa9fb00231b0c03eb430357
:10219800c3eb03159f4a00235046594623f05cffc2
:1021a8002844a060b4f9540000220092134620216c
:1021b80025f06ef8052828bf0520421c92b2616cf4
:1021c800b4f9540018f01ef8656c032208f1a00158
:1021d800284625f0b6fa00284ed1002384f840306e
:1021e800b4f954000026009633463246202125f0e3
:1021f8004ff80546b4f9540000962b4632463f2165
:1022080025f046f8a84228bf284682b2834b1b888f
:102218000b3b9a4242dd052384f84030072384f8bb
:10222800423000f0edbe05232a460121b4f95400de
:102238000df07ef995e7b4f9540025f028fa002846
:1022480040f0a686052384f84030072384f84230fe
:1022580022f096fb6f4a002323f0fefea368c31a00
:10226800002b40f3cd86b4f9540025f0ecfc0a238a
:1022780084f8423000f0c4be042208f1a4012846c4
:1022880025f05ffa18b9012384f84030a8e707233e
:1022980084f8403084f8423000f0b2be616cb4f982
:1022a800540017f0afff636c00221a54606c1bf0e7
:1022b800a9fc656c284626f0a5f986b2b34606f156
:1022c800ff3a15f80a302f2b00f06f86386803683c
:1022d8000022691c9847a061606c013026f092f9d1
:1022e800b0f5807f31d8656c4ff48072691c04f1b9
:1022f8005c0024f0bdf9a369b3f1ff3f40f05a86b2
:1023080015f80a302f2b04d00136b6b22f2305f862
:102318000b30424b1a88606c921b08f1d001304494
:1023280024f0a6f90936b6b23868616c0368002251
:1023380001319847a061616c4ff48072013104f15a
:102348005c0024f095f900f035be26f09ffa0128cc
:10235800c9d908f1ac001df077fec4e788420ad05d
:1023680011f8013f202bf9d0b4f8482013445b0042
:10237800a4f84830f2e70ef1ff3e05eb0e06b54231
:102388000cd015f80e302e2b08d0731e29461e4689
:102398008b4203d0013b32782e2af8d10136002532
:1023a80084f84150dff880a05af82510304625f00f
:1023b800d1ff28b10135edb284f841500b2df3d986
:1023c8005946204623f098fc84f85100b4f954008b
:1023d800002200921346202124f05aff054680b3bc
:1023e800012384f850300df25711b4f9540026f047
:1023f8007afa6a1e92b2094b1b88023b9a4215db95
:10240800052384f84030072384f8423000f0f8bdf3
:10241800ac6b0020f0490200516700206e6c002070
:10242800d89a0000851dd96f444f0200616cb4f939
:10243800540017f0e7fe226913180133236126239d
:102448001354b4f95400002500952b462a460a2156
:1024580024f01eff421c92b22946b4f9540017f02a
:10246800d1fe022384f842300125dff828b357e073
:10247800b4f9540025f00bf9c8b9052384f84030a5
:10248800072384f8423022f07bfabf4a002323f066
:10249800e3fda368c31a002b40f3b285b4f95400d6
:1024a80025f0d1fb0a2384f8423000f0a9bd22f0c0
:1024b80067fab54a002323f0cffda368c31a002b9f
:1024c800ecdc002d00f09c8550e302220021b4f9d9
:1024d800540017f097fe032384f8423000f090bdb3
:1024e800524651a9b4f9540017f08cfe002556ab9a
:1024f800534403f8155c5bf8251051a81ef09afeaa
:10250800002848d00135032df5d1a6eb0a0290b278
:102518000025421c92b20021b4f9540017f072fe53
:10252800b4f954000022009213460a2124f0b0fea8
:1025380006464ff6ff7398429ad022f021facde969
:10254800020126f00df9a9fb00352d0c05eb450518
:10255800c5eb05158c4a0023dde9020123f07cfd5b
:102568002844a060012eb0d0b4f954000022009293
:1025780033463a2124f08cfe02301ffa80fabaf171
:10258800100fadd9721c92b20021b4f9540017f0a3
:1025980039fe0025c4e775b1012d67d0022d00f082
:1025a800b280b4f954000022009213460a2124f0a4
:1025b8006ffe0125ade7b4f95400002301930093a1
:1025c800022272490ef05efa0646714b1a88636c55
:1025d800134422699b1a023b9bb2984202d20025ff
:1025e80010bbdee7052384f84030072384f8423027
:1025f800d7e72946b4f9540026f075f9b4f9540020
:1026080000952b462a46314624f042fe0028f0d099
:10261800b4f95400019500952b4602225b490ef04f
:1026280031fa06460028bcd0b4f9540000952b4670
:102638002a463b2124f02cfe82460246b04228bf9f
:10264800324692b22169b4f9540017f0dbfd2269d1
:1026580013180133236126231354b245d8d22946cf
:10266800b4f9540026f03ff92026c7e794f9513011
:10267800002b96db06220021b4f9540017f0c2fda6
:10268800b4f9540000230193009302223f490ef04d
:10269800f9f9c51c05f0fc05242d28bf242575b3c0
:1026a80009ae4ff0040a52463146b4f9540017f007
:1026b800a9fd032332465146304616f09ffe043ddd
:1026c800adb20336002deed1002333709df82430cf
:1026d8003a2b16d00df1250313a81a4601331178a9
:1026e8003a2902d01a469842f7d1002302f8013b52
:1026f80009a9204623f020fe84f8510051e709aecd
:10270800e2e709aaf1e7b4f9540000230193009322
:1027180002221e490ef0b6f90246092805d90223fd
:1027280084f84030002323603be709ad2946b4f91b
:10273800540017f067fd00232b54284626f0aaf909
:1027480020602ee794f95130002b07db032384f82f
:102758004030072384f8423000f052bc236900223d
:102768001a70606c1bf04efa2061042384f8423022
:1027780094f8503013b9052384f84230002384f8c4
:10278800503000f03dbc00bff0490200fc8a020056
:102798006e6c00208c87020020461cf077ff022810
:1027a80000f0e481052384f84230b4f9540025f0a0
:1027b800e4fde368984200f09c8094f84030012bd7
:1027c80000f0aa80062384f84230a369b3f1ff3fe2
:1027d80000f0df8000232360072384f84230b34be6
:1027e8001b7813f0010f40f0db8094f84020b04bc9
:1027f80053f82210b4f9540025f03ffa94f8403009
:10280800082b00f0d58094f84030012b00f2e680c8
:1028180094f841300c2b13d008f1f001b4f95400ae
:1028280025f02bfa94f84120a24b53f82210b4f962
:10283800540025f022faa049b4f9540025f01dfaf5
:102848003868436849aa04f15c019847b0f1ff3f32
:1028580004d09df82c31012b00f0c48008f58e714e
:10286800b4f9540025f009fa94f84030012b00f02f
:10287800b4830022adf8202009923868036808f56f
:10288800967198470546b0f1ff3f25d03868c66a6b
:10289800042309aa2946b047099bcbb14ff0020a85
:1028a8003868c66a534608aa2946b047b4f848208b
:1028b800bdf820309a4200f08c833868066a0123fc
:1028c80008222946b047099b013b0993002be7d111
:1028d800386843692946984708f5a471b4f9540043
:1028e80025f0cbf908f5aa71b4f9540025f0c5f91b
:1028f80079e322f045f8714a002323f0adfba36881
:10290800c31a002b7ff759afb4f9540025f09bf98f
:102918000a2384f8423073e320460af083fa8df8dc
:102928005701022827d001287ff44cafb4f954008e
:1029380025f023fde06022f023f882468b4625f03f
:102948000fffa9fb00231b0c03eb4303c3eb031589
:102958005a4a00235046594623f07efb2844a0607b
:102968002268e3689a420dd8062384f8403007238a
:1029780084f8423044e3b4f9540025f0fefc0138f1
:10298800e060f3e0b4f9540024f081fe0028ebd0b5
:10299800ece0042384f84030072384f842302fe326
:1029a800022300220121b4f954000cf0c1fd1ce7f8
:1029b800616cb4f9540025f060f908f1dc01b4f950
:1029c800540025f05af9616cb4f9540025f055f912
:1029d8003949b4f9540025f050f914e70a2384f86a
:1029e8004230c3e008f58071b4f9540025f045f988
:1029f80034e73149b4f9540025f03ff9092384f844
:102a08004230fde2636c636194f85030002b00f0b3
:102a18009f8008f5ac7a25252b2693e03146b4f93a
:102a2800540025f0c3f918e02946b4f9540025f0fc
:102a3800bdf9b4f954b09df8570125f0a9fe014637
:102a4800584625f0b3f9b4f954b09df8570125f06c
:102a58002ffe0146584625f0a9f963695a1c6261a0
:102a680019788df85711a9b12029d7d0a1f13003d1
:102a7800dbb24a2bd8d8a1f13a03dbb2062bd3d963
:102a8800a1f15b03dbb2052bced9b4f9540025f0d4
:102a98008df9e2e73d21b4f9540025f087f928e0e3
:102aa8003146b4f9540025f081f922e0516700203d
:102ab8006c6702000c4f0200fc8a0200f049020019
:102ac8002946b4f9540025f071f9b4f954b09df8c9
:102ad800570125f05dfe0146584625f067f9b4f91f
:102ae80054b09df8570125f0e3fd0146584625f0fe
:102af8005df963695a1c626119788df85711a9b19b
:102b08002029cdd0a1f13003dbb24a2bd8d8a1f1ce
:102b18003a03dbb2062bd3d9a1f15b03dbb2052b59
:102b2800ced9b4f9540025f041f9e2e7a149b4f946
:102b3800540025f0a2f894f85030013bdbb284f839
:102b480050302bb15146b4f9540025f096f884e77b
:102b58009849b4f9540025f090f8092384f84230d4
:102b680094f83e302bb10a2384f8423057b0bde8c0
:102b7800f08f0023089394f84330082b00f2ed817e
:102b8800dfe813f0090015008b00eb019b000a0138
:102b98004e016901a1013868c369a169984720639a
:102ba800013810f1030f1ed80023a362e3603868d0
:102bb8000368002208f5967198470546b0f1ff3f73
:102bc80015d03868c66a042308aa2946b0470428dd
:102bd80002d00123784a1370022384f84330089bfb
:102be800002b31d15ee0012384f83e30ade10823ab
:102bf80084f84330012384f83c30236b002b00f029
:102c080091810023ace0012384f83b303868c66a20
:102c1800042307aa2946b047042802d00123664a9c
:102c28001370079b23873868c66a042304f12402bb
:102c38002946b047042832d001235f4a13702ee09a
:102c4800089b013b089353b33868c66a02230df109
:102c58001a022946b047022802d00123564a1370a7
:102c6800b4f84820bdf81a309a42ccd03868c66a01
:102c7800042307aa2946b047042802d001234e4a54
:102c880013703868c66a042307aa2946b04704287f
:102c9800d6d00123484a1370d2e74ff0ff35b5f17b
:102ca800ff3f03d0386843692946984794f93b3079
:102cb800012b5fd0089b002b60d00022e2603868af
:102cc8000368059998470546b0f1ff3f00f03d813c
:102cd80094f93a30002b58d13868228f066a0632a8
:102ce8002946b047012384f83a303868c66a042375
:102cf80004f11c022946b047042802d001232e4ab9
:102d080013703868c66a042304f120022946b047c4
:102d1800042802d00123284a1370052384f843307d
:102d2800e369002b4ad1062384f843303868436aa4
:102d3800294698472087e269a36a9a4204bf062376
:102d480084f843303868436929469847236b002b39
:102d580040f0e68094f83c30012b00f0e38000233b
:102d6800154a92f90020012a00f0dc80002b7ff43c
:102d7800fdaeeae0042384f843309ee7082384f894
:102d88004330012384f83c3037e73868066a00236b
:102d9800228f2946b047a8e73868036800220599ba
:102da800984705463868066a0023228f2946b047a7
:102db800b6e700bffc8a02000d670020b4f9540092
:102dc80024f04effe669a36af61ab6f5807f28bf9d
:102dd8004ff480763868d0f82ca0334609aaa16948
:102de800d0478246b04202d00123944a13701ffa9a
:102df8008af209a9b4f9540012f01cfb06b2b245d4
:102e080007d03868d0f820b00123a6eb0a02a169e0
:102e1800d847236b9b1b2363a36a3344a36285e7cc
:102e28003868c56a012309aaa169a847012802d000
:102e38000123824a1370236b013b2363a36a013386
:102e4800a3629df824307e2b1fd0072384f84330db
:102e5800012384f83c30216a204611f049fd94f89a
:102e68003c30012b1dd0e368013b13f1030f8cbfed
:102e78000023012374e7236b013b2363a36a013317
:102e8800a3629df824307e2bdfd03868c56a012301
:102e980009aaa169a8470128edd00123674a137040
:102ea800e9e7636a013b6362042284f84320002b4c
:102eb8007ff4a3ae236b13b1082384f843300023b7
:102ec80084f83a3099e6b4f9540024f0c9fe256b29
:102ed800b5f5807f28bf4ff480753868c66a2b46e1
:102ee80009aaa169b0470646854202d00123534a80
:102ef8001370b2b209a9b4f9540012f09bfa05b2e2
:102f0800ae4206d03868d0f820a00123aa1ba169d8
:102f1800d047236b5b1b2363a36a2b44a36215e78b
:102f280000231de7b4f9540023f0bcfe002384f805
:102f38003b3084f83a3023622387a36284f8433015
:102f4800012284f83e203d4a1370b4f9540024f05d
:102f580087fe00283ff40aae52e0002306e7a16985
:102f6800b1f1ff3f06d0364b1868436998474ff0d8
:102f7800ff33a361b4f9540024f065fe00283ff440
:102f8800f5ad002384f84230f0e50125fff799ba42
:102f980021f0f6fc2b4a002323f05ef8a368c31a3d
:102fa800002b7ff7e3adfff75eb9a369b3f1ff3fed
:102fb8003ff4afa90023a4f84830656c05f1010b74
:102fc800b646a81983453ff4d6a929460138fff724
:102fd800c7b9386843692946984708f59e71b4f916
:102fe800540024f04afe1849b4f9540024f045fe70
:102ff80094f85030002b3ff4fcac082384f842309e
:1030080094f842300a2bc0d801a252f823f000bf2e
:10301800ff2000006b210000712400004d270000f4
:10302800a1270000b3270000d3270000e7270000ee
:103038000d2a0000692b0000672f00000d67002093
:0c304800ac6b0020f0490200fc8a020082
:020000040000fa
:103054002de9f04f93b00f210a2023f04dfc089086
:1030640010f0010f12d1089b13f0020f40f0678596
:1030740013b0bde8f08fb9f8223013f4007f0cd000
:103084006ff00d010a22484622f072fc0a2024f057
:103094004fff81460028eed1e5e7d9f81c301c46e5
:1030a4000293b9f82060132e40f23685d9f81870cf
:1030b40007f110030693fb680f933b6910930022fa
:1030c4008df8442006238df84530330a43ea06235d
:1030d400adf846300c210fa81ef019fac3439bb279
:1030e400b9f8222012f0040f35d032462146484662
:1030f4001cf04dfa002840f01385029c20461df078
:10310400ffff94f80cb04fea1b1b4fea8b0babf19b
:10311400140b1ffa8bf30593d9f81c80d9f828c037
:10312400b8f802b0bbf1000f00f0fe84fd89bb8942
:103134001d44b8f800301d4485ea0b05adb2c54bfb
:103144001a68002a00f0f484c34bd3f800e000238b
:103154009a4619460ee01a46314602981ef0d7f9ef
:10316400c8e7b4f86a10a9421fd001331bb219464c
:1031740093422ed25ef82140002cf6d094f86e10c3
:103184000b29f2d094f86f000128eed8206c08b116
:103194008445ead10029e4d1b4f86a105945e4d150
:1031a400baf1000f08bfa246dfe7d8f80000a16d0e
:1031b4008842dad1a06bf9688842d6d1012184f81b
:1031c4006f10c4f840c0069a204622f03df9a2468a
:1031d4001de0baf1000f00f08c80fb68caf83830ab
:1031e40001218af86f10caf840c0069a504622f0ae
:1031f4002bf9aaf86a50b8f80030aaf85830b8f891
:103204000230aaf85a30daf80030caf81030d9f887
:1032140010201389143b05995b1a1381029a547b7d
:10322400d2f8088055689af8373013f0400f63d10c
:103234009af86d306ff300038af86d309af86e30a7
:10324400002b7dd0012b00f0b280059ab61ab6b2dd
:10325400a6f1140292b2059214f0010209921abf67
:10326400133e1ffa86fbddf814b014f0020f1cbfe6
:103274000bf1010b1ffa8bfbdaf81c60daf8202043
:103284009642c0f0c980daf81810daf81400091a66
:10329400b21a8a1a92b20692daf85020af1abbf127
:1032a400000f00f0be80069a002a00f0c780002fad
:1032b40001db97420ed307eb0b02002a40f3be80da
:1032c4000699a1eb0b029742ccbf002201228f4248
:1032d40080f2b18014f0060f00f0c68014f0040fe1
:1032e4000cbf00264ff400660021504619f0f2fa94
:1032f400fce36ff00d01c5e600238af871309af8fb
:10330400363013f0020f93d121f03cfbcde90601d6
:10331400baf8687025f026fa504ba3fb00231b0c67
:1033240007fb03f74e4ba3fb0737bf094d4a0023a6
:10333400dde9060122f092fe3844caf8240077e75a
:1033440014f0040f1ad114f0100f1dd114f0020f51
:1033540027d00135caf85050029818f025f8aaf879
:103364006200504621f007f901221221504606f06e
:10337400e1f802238af86e300026b7e300215046b4
:1033840019f0a8fa0026b1e3caf84c8000220421ff
:10339400504606f0cff80021504619f09bfa00265b
:1033a400a4e30021504619f095fa00269ee314f098
:1033b400040f40f09a8314f0100f00f06685daf8d9
:1033c4004c60b04500f08d85caf84c800122042180
:1033d400504606f0aff8caf84c60002686e321f0a8
:1033e400d1fa06460f46baf8684025f0bbf91b4be4
:1033f400a3fb00231b0c04fb03f4194ba3fb0434b1
:10340400a409184a00233046394622f027fe2044f6
:10341400caf8240000f05cbd921b013a92b20692f5
:103424003ae7002f3ff456af002f07db069a974286
:10343400acbf00220122002a7ff44caf14f0040f29
:1034440001d0002652e301221021504606f072f802
:1034540000264be3346b0020306b0020851dd96fb0
:10346400d34d6210f049020014f0100f00f04583b0
:10347400023b072b00f27281dfe813f008001d0005
:103484001d001d001d0070011d006301daf84c6071
:10349400b0450ad0caf84c8001220421504606f0f7
:1034a40049f8caf84c60002620e303238af86e30fa
:1034b4004ff4807600e00026daf808300d93daf84d
:1034c4001020981a14d4daf84c30a8eb0301091a26
:1034d40000291dddbaf86c0000f40170042801d144
:1034e40001290cd000221021504606f023f8fde2f9
:1034f400daf80430daf800105b1a1844e3e7013311
:10350400caf84c309af86d3043f002038af86d30f3
:10351400daf84c300c93daf80c00a2eb000ca3ebb5
:103524000c030a9382422fd2daf80430daf800103e
:103534005b1a0a99cb1aa8eb0303002b2ddddaf8ea
:1035440004c0daf80010aceb01018b4223d89af8de
:103554006ce00ef0ef0e6ff3451e8af86ce09af8fb
:1035640036e06ff3451e8af836e01844caf80c00ba
:103574000a44824280f0e184821a0c9b1a44caf8fd
:103584004c20caf8100067e00a9ba8eb030ebef1ba
:10359400000f00f3b584824228d09af86c3013f0ff
:1035a400100f1dd013f0200f14d00a99caf84c1034
:1035b400824207d2daf80430daf800209b1acb1ad8
:1035c400caf84c30caf810009af8363043f0800339
:1035d4008af836309af86c3043f020038af86c305d
:1035e4009af86c3043f010038af86c30daf80c3037
:1035f4000d9a9a4235d0029bdb89baf866209a422a
:1036040038bfaaf86630daf84c20029bdb894344c1
:103614009b1a9bb2baf85c1031b92bb19af83610e8
:1036240041f040018af83610aaf85c309af86e30fe
:10363400042b5ad0062b40f09280904540f05682dd
:103644000021504619f046f950e2831a0c9a1344ab
:10365400caf84c30caf81000604580f0708400f05d
:1036640078bc9af8373013f0010f28d113f0400fcb
:103674001ed021f087f9cde90a01baf868300c931d
:1036840025f070f8c749a1fb00131b0c0c9a02fb30
:1036940003f3c54aa2fb03239b090c93c34a0023eb
:1036a400dde90a0122f0dafc0c9b1844caf8240074
:1036b4009af836306ff341038af836309be7daf82c
:1036c4004c30984597d19af86c3013f0040f92d08f
:1036d4009af836306ff341038af836309af8373067
:1036e4006ff300038af8373085e7904503d014f070
:1036f400200f43d0fae19af86c3013f0040ff6d09f
:1037040021f040f9cde90a0125f02cf8a54ba3fbe3
:1037140000231b0c41f2883202fb03f3a24aa2fbf2
:1037240003239b090c93a14a0023dde90a0122f03b
:1037340095fc0c9b1844caf8300005238af86e30b7
:10374400d5e7daf84c300133984501d00026cde1b5
:103754000021504619f0bef80026c7e1002614f0f7
:10376400200f40f0c3819af86e20a2f10803dbb267
:10377400012b40f2bb81062a00f0b881059b002b87
:103784003cd0002f78dd059b3b4406998b4202dd3b
:10379400cc1ba3b20593029a137b1b0902eb830390
:1037a4000e93daf81c10daf81820059b3b440b44fe
:1037b4009a4280f0ed80531a0133db1b00f1da806a
:1037c4009ab201240094029213460ea80246394488
:1037d40048461cf0fffb0690059b029a9b1adaf8f8
:1037e400141000949bb20eaa48461cf0f3fb069bef
:1037f400034498b2059b834200f0da80bbf1000fca
:1038040000f010819af86e30033bdbb2022b84bfc8
:10381400daf81c30caf820309af8363013f0100f5a
:1038240040f0fb809af8363043f010038af83630c3
:1038340013f0080f40f0f680dbb243f008038af877
:10384400363021f09ff8cde9020124f08bff554b6f
:10385400a3fb00231b0c642404fb03f4524ba3fbc3
:103864000434a409514a0023dde9020122f0f6fbe5
:103874002044caf82c00d5e0029a137b1b09c7eb3d
:10388400830313440e93059b3b449cb2069ba342c3
:1038940028bf23461c46daf81c10daf818300a1937
:1038a400934243d25b1a01330293bdf808200127e7
:1038b4000097059213460ea8024648461cf08afb60
:1038c4000690059aa31adaf8141000979bb20eaa70
:1038d40048461cf07ffb069a024490b2029be31a0e
:1038e400daf814201344844288d1daf850102144c1
:1038f400caf85010caf81c309af86e20033ad2b2b3
:10390400022a98bf46f40076daf85420b2f1ff3f59
:103914003ff474af141bcaf85440baf8602012196b
:103924000fd54ff0ff33caf8543067e701230093f3
:1039340023460eaa48461cf04dfbdaf81c302344fb
:10394400d1e7002c3ff75aaf1144caf85010134482
:10395400caf81c30daf81820934206d9daf81410a1
:10396400521ad2431344caf81c304ff0ff33caf83a
:10397400543043e7781edaf81430d21a801a01233f
:103984000093059b0eaa014448461cf023fb31e733
:1039940001230093059b0eaa394448461cf01afbe8
:1039a40028e700bf851dd96fd34d6210f04902008e
:1039b400daf85430b3f1ff3f06d1caf85470bdf8b9
:1039c4001430aaf8603019e79f4214d2059ad1192d
:1039d400baf86020d018814201d88b4206d9bdf8cc
:1039e4001430aaf86030caf8547007e71344db1b9c
:1039f400aaf86030f7e7baf860201a44059801463f
:103a0400394491427ff6faae97423ff6f7aefb1a7d
:103a140001461944aaf86010f0e60122102150462c
:103a240005f088fd099b002b60d0daf85030013393
:103a34005d44ab425ad1caf8503046f480669af8d5
:103a44006e30023b032b2ed8dfe803f0020b334524
:103a540009238af86e3001221121504605f06afdcf
:103a640044e008238af86e3020f08cff04460d46ab
:103a740024f078fed04ba3fb00231b0cc82707fbc4
:103a840003f7ce4ba3fb0737bf09cd4a00232046db
:103a9400294622f0e3fa3844caf830009af86d3027
:103aa40013f0010f22d101221021504605f042fdee
:103ab4001ce0daf84c30984509d100221021504618
:103ac40005f038fd0021504618f004ff0ee00623ef
:103ad4008af86e30e7e700221021504605f02afdef
:103ae4000021504618f0f6fe00e00026baf87220d5
:103af400324004d10221fff7c5ba0026f6e7daf80e
:103b04007440ccb1daf87830d9f82810baf9340016
:103b1400a0470221fff7b6ba6ff00c01fff7b2ba63
:103b24006ff00901fff7aeba6ff00d01fff7aaba03
:103b34006ff00d01fff7a6ba0221fff7a3baa14b5c
:103b44001b68002b3ff494aa00252b469e4fdff8f8
:103b540068b2dff868a2b5e00026b046c4e020f001
:103b640011ff974a002322f079faa36ac01a0028a9
:103b7400a8bf1026bce020f005ff914a002322f0e4
:103b84006dfae36ac01a0028a8bf1026b6e020f038
:103b9400f9fe8b4a002322f061fa236bc31a002b2f
:103ba400c0f2b180092384f86e30112688f0010236
:103bb4003146204605f0befcade020f0e3fe804a2d
:103bc400002322f04bfa236bc31a002bc0f2a0800f
:103bd40001221421204605f0adfc0021204618f0f6
:103be40079fe67e094f8366006f00106012120466c
:103bf40019f0e6f994f8363043f0010384f83630ce
:103c04004ff48052002120461ff000f8002e51d1bd
:103c140094f836306ff3000384f836300a2384f8be
:103c24006e3047e020f0aefe654a002322f016fa1b
:103c3400636ac01a00283ddb94f86e30013b082b00
:103c440000f2fe80dfe813f00900c200d900e400ae
:103c5400fc00ec00fc00fc00f40094f87030032b32
:103c640000f2968002264ff0000994f87030013378
:103c740084f87030a36c5b00a3642169e2688b1a3a
:103c84009bb2914204d261682068091a0b449bb22a
:103c9400e16cc91ae164b4f85c100b44a4f85c301c
:103ca400226100223146204605f044fcb9f1000fa0
:103cb40040f0cc8001352db22b46424a1268954221
:103cc400bff4d6a93a6852f82340002cf2d094f8f5
:103cd4006e300b2beed094f8363013f0c00f3ff457
:103ce4003baf4fead318102613f0040f7ff437af1d
:103cf40094f8363013f0080f7ff43daf94f86e302b
:103d0400082b3ff444af94f86e30052b3ff455afc5
:103d1400002e7ff44baf94f8363013f0020f81d1ac
:103d240094f8373013f0400fc4d094f86e30032b5e
:103d3400c0d120f027fe224a002322f08ff9636ac3
:103d4400c31a002bb6db94f8712094f87c309a42a5
:103d54003ff448af02221021204605f0ebfb20f08f
:103d640011fe80468946b4f8686024f0fbfcabfb86
:103d740000231b0c06fb03f6aafb0636b609104a01
:103d840000234046494622f069f93044606291e7d5
:103d9400042384f8703024f0e5fcabfb00231a0cf8
:103da4004ff47a7303fb02f3aafb03239b091b0161
:103db400a364022657e700bf851dd96fd34d621057
:103dc400f0490200346b0020306b002094f870300e
:103dd400022b40f28b8094f8363013f0010314bfa9
:103de400142602269946b8f1000f7ff43eaf012253
:103df4003146204605f09efb58e794f87030042bba
:103e040076d9042384f86e3011264ff00009eae7ce
:103e140094f87030042b6dd914264ff00109e2e7b1
:103e240094f87030042b67d914264ff00109dae7af
:103e340094f87030042b61d914264ff00109d2e7ad
:103e4400002e3ff437af4ff00009cce700212046a5
:103e540018f040fd2ee70135caf850500298c38986
:103e6400aaf86630aaf85c3017f09efaaaf8620045
:103e7400504620f080fb01221221504605f05afbe7
:103e840002238af86e30002630e614f0020fe2d1e5
:103e940000262be60135caf850500298c389aaf8c7
:103ea4006630aaf85c3017f07ffaaaf86200504630
:103eb40020f061fb01221021504605f03bfb032357
:103ec4008af86e309af8373013f0400f7ff487aadf
:103ed4009af836306ff341038af836304ff480761f
:103ee40004e614f0020fd5d10026ffe51226bae647
:103ef4001026b8e61126b6e61026b4e61126b2e678
:103f0400daf804c0daf80030aceb03018e453ff672
:103f140042ab9af86c3003f0ef036ff345138af861
:103f24006c309af836306ff345138af836307044a3
:103f3400caf80c008242fff488ab604502d3401af1
:103f4400caf80c00daf81030634524bf5b1acaf8cb
:103f540010309af86e30032b02d0082b7ff446ab56
:083f640046f00406fff742bb22
:020000040000fa
:103f6c002de9f04f2ded028b9db00f21202022f07a
:103f7c00bffc002800f05187c14b1b68002b40f39d
:103f8c004c87c04b03f1440603f180094ff0000845
:103f9c009a464746bc4b03f51d6307939fedbb8abe
:103fac007be3d6f880305c6896f88d20f2b116f879
:103fbc00342c012a49d0022a6bd136f90c3cb3f1ce
:103fcc00ff3f1fd00023b24a4ff4007135f90c0c9f
:103fdc0022f084f9aa6f022135f90c0c14f008feba
:103fec0048b3062150461ef0e7fc49e31b681b68ea
:103ffc00a54a02f2a46120469847012150461ef0c2
:10400c00dbfc3de34a4636f8321c012019f080f8ff
:10401c0026f80c0cb0f1ff3fd4d1d6f880301b68d9
:10402c001b68994a02f5d9612046984701215046f0
:10403c001ef0c2fc24e3d5f880301b681b68924a42
:10404c0002f2ec6120469847cbe74a4636f8321c20
:10405c00012024f091fc26f8080cb0f1ff3f0ad0a7
:10406c0000238c4a4ff4807122f0cefc0321504681
:10407c001ef0a2fc04e3d6f880301b681b68824a51
:10408c0002f2147120469847012150461ef094fc10
:10409c00f6e21b681b687c4a02f5e76120469847ec
:1040ac00012150461ef088fceae2d6f880305b68ad
:1040bc0004934feae80303ebc30203eb4203c3eba5
:1040cc00432303eb83435b4205936f4b03f5ee6392
:1040dc00069300f0e1bdd5f880301b681b686a4a76
:1040ec0002f5ea6104989847042150461ef064fcde
:1040fc00c6e235f9080c23f066f8c1e201332b65f2
:10410c00012b00f0f685204609f0fafe02460b461c
:10411c0055e9090109f0a8fd45e90901bbf1000fba
:10412c003fdb55f81c3c55f8181c4a1c934205d033
:10413c004ada55f8102c013245f8102c8b424ad033
:10414c0055f81c3c55f8182c9342c8bf45f8183c40
:10415c000c3ca4b2002c00f09f854ff0340b332c98
:10416c0040f294855a464c4935f9080c16f039fd45
:10417c00343ca4b2002cf2d100f08ebdd5f88030c6
:10418c001b685b68404901f29c710498984755f88c
:10419c00143c013b55f81c2c134445f8143c00f01e
:1041ac00b5bdcbf1000345f81c3c20f0e7fb3b4ac6
:1041bc00002321f04fffa864002385f888300421e8
:1041cc0050461ef0f9fbace79a1a55f8140c024451
:1041dc0045f8142cb2e7d5f880301b681b682a4ac6
:1041ec0002f5f96104989847aae72b6d4bb995f83d
:1041fc008b30012b40f04482042150461ef0dcfb36
:10420c003ee220f0bbfb254a002321f023ff6b6e1e
:10421c00c31a55f8442c9342e9d92a6d6b6d9a4216
:10422c0004d0002150460bf051fce0e7d5f880306b
:10423c001b681b68144a02f5fd610498984720f02e
:10424c009dfb164a002321f005ffa864002385f886
:10425c008830042150461ef0affbc8e736f9080c35
:10426c0022f0befb38b996f88b30cbb905215046fd
:10427c001ef0a2fb04e236f9080c22f0a4ffffe1c9
:10428c00bc6b0020b85d00208c66000000007a44f6
:10429c00f3800200dd8002000c000020f0490200d7
:1042ac00092150461ef088fbeae196f88930002b74
:1042bc0000f0ed8035f9080c22f092fb002840f05c
:1042cc00ee8095f888305a1c85f888200a2b00f26d
:1042dc00eb80802135f9080c24f0c2fb002800f09b
:1042ec00cf8155f8183c5b421a0e42ea0362190260
:1042fc0001f47f010a431b0a03f47f431343cf4aa3
:10430c0013600024147154719471d471147254722a
:10431c009472d4726ff07f03137354739473d473c9
:10432c00147454749474d47455e9090120f0e0f8b1
:10433c00030e43ea0063020202f47f021a43030aeb
:10434c0003f47f431343bd4a5361aa6c6b6ca2eb1d
:10435c00030b24f003faba4ba3fb00231b0cbbfb8f
:10436c00f3f31a0e42ea0362190201f47f010a43c5
:10437c001b0a03f47f431343b04a9361aa6c6b6c22
:10438c00a2eb030b24f0eaf9ad4ba3fb00231b0caf
:10439c00bbfbf3f203fb12b308ee903af8ee688a1b
:1043ac0068ee888a24f0daf9a54ba3fb00231b0cda
:1043bc0007ee903ab8ee677ac8ee877a67ee887a9d
:1043cc00fceee77a17ee903a1a0e42ea03621902f3
:1043dc0001f47f010a431b0a03f47f431343974afa
:1043ec00d36155f8143c1a0e42ea0362190201f427
:1043fc007f010a431b0a03f47f4313438f4a136262
:10440c0055f8103c1a0e42ea0362190201f47f01be
:10441c000a431b0a03f47f431343884a536255f83b
:10442c00183c1a0e42ea0362190201f47f010a4396
:10443c001b0a03f47f431343804a9362134682f8aa
:10444c002c4082f82d4082f82e4082f82f4082f8c2
:10445c00304082f8314082f8324082f833403422c6
:10446c00194635f9080c1ff0dcf84ff04c0b5a4686
:10447c00214608a824f0b4f85a4608a935f9080cc6
:10448c001ff0cff835f9080c0df0d5faf8e0022141
:10449c0050460bf01bfb012386f889300ae735f9ef
:1044ac00080c22f090feebe0092150461ef084fa35
:1044bc00e6e096f88b30012b24d036f90c0c22f068
:1044cc0059fb002800f0dc8008a936f90c0c1cf014
:1044dc001dfba6f1040e08ac0fccaee80f000fcc00
:1044ec00aee80f000fccaee80f0094e803008ee8a6
:1044fc000300072150461ef05ffa36f90c0c22f02f
:10450c004cf8bde0092150461ef056fab8e0d6f83a
:10451c008030d3f804b036f90c0c23f02cff049047
:10452c0050b356f81c3c002b39d055f81c3c0133c9
:10453c0045f81c3c2a6d01322a6545f8183c049854
:10454c0009f0defc02460b4655e9090109f08cfb2b
:10455c0045e909014ff0340b049c332c40f22984bb
:10456c005a46364935f90c0c15f04afe343ca4b2c7
:10457c00002cf2d100f024bc36f90c0c22f00df812
:10458c00002800f01d8420f0f9f92e4a002321f0b8
:10459c0061fdb064082150461ef00efa70e04fea3f
:1045ac00e80303ebc30203eb4203c3eb432303eb2c
:1045bc008343d6f880201268526814465a42224926
:1045cc0001f5ee615846a04720f0d8f91d4a0023aa
:1045dc0021f040fd7064706656f81c3cb36536f9ea
:1045ec000c0c23f06dff23f0b5f9d6f880301b6866
:1045fc0036f8322c0292020e0192c0f3074200925e
:10460c005b681c46c0f30723c2b20f4901f5b161c8
:10461c005846a04773783278d6f880100968308ce9
:10462c000290f0780190b078009049680c460649e9
:10463c0001f2bc515846a04777e700bf0c000020a0
:10464c00851dd96ff04902008c66000020f096f9a8
:10465c00c94a002321f0fefc6b6ec31a55f8442c9a
:10466c00934240f2b283002150460bf02ffaace398
:10467c0096f88930002b3fd0092150461ef09cf94a
:10468c0001370af1d80a08f1d808d83609f1d80947
:10469c00ba4b1b68bb4240f3c083354696f88a3050
:1046ac00012bedd0023b102b00f2e18201a252f85b
:1046bc0023f000bfaf3f0000b7400000694200008c
:1046cc00b7420000bf4400001b4500007d460000bf
:1046dc0015470000c1470000e3470000dd4900001a
:1046ec00c74a00005f4b0000534c0000c748000055
:1046fc00c54b00006b4c0000022150460bf0e6f954
:10470c00012386f88930b7e7d6f880305c6816f854
:10471c00343c012b2dd0022b30d04feae80303ebb5
:10472c00c30203eb4203c3eb432303eb8343c3f109
:10473c00000bd5f880301b685b685a46904901f530
:10474c0000612046984750461ef02ffd95f88d309d
:10475c00012b1cd0d5f880301b685b685a46884901
:10476c0001f6640120469847012150461ef024f9b9
:10477c0086e736f9080c1ff005f9cee736f90c0c74
:10478c0020f00cf84ff6ff7326f80c3cc5e795f8b3
:10479c008b30002bded1d5f880301b685b685a4615
:1047ac00774901f5036120469847022150461ef0d7
:1047bc0003f965e73146d6f884001ff04ff90b2159
:1047cc0050461ef0f9f820f0d9f86b4a002321f07e
:1047dc0041fcb06654e7d6f880305c6896f88b20c4
:1047ec00012a31d0337803f0f003e02b52d00af1d8
:1047fc0078023146d6f884001af070f980bb20f0ac
:10480c00bdf85d4a002321f025fcb36ea0eb030b31
:10481c0023f0a4ff5b4ba3fb00231b0c03eb8303d4
:10482c009b457ff62dafd6f880301b681b68544a29
:10483c0002f6a4012046984720f0a0f84e4a002327
:10484c0021f008fcb0661be71b681b684c4a02f69b
:10485c00840120469847012150461ef0adf80fe721
:10486c0096f8353096f83420d6f88010096896f80a
:10487c003900039096f83800029096f837000190b2
:10488c0096f836000090d1f804b03d4901f6e401e9
:10489c002046d84715f8343c012b09d015f8343c88
:1048ac00022b7ff4edae0c2150461ef085f8e7e6a6
:1048bc00102150461ef080f8f0e7d6f880305c6886
:1048cc00324636f8321c012024f05bf826f8080c2e
:1048dc00b0f1ff3f5ad000232b4a4ff4807122f0e5
:1048ec0093f856f8382c052136f9080c0df0c6fa59
:1048fc00002859d00222062135f9080c0df0befa19
:10490c0000285bd0d5f8841035f9080c1ff090fd09
:10491c0008a935f9080c1cf057ffbdf866306b87f9
:10492c00d5f880301b681b68154a02f57c7120464f
:10493c0098476b782a78d5f88010096835f8320cce
:10494c000290e8780190a8780090d1f804b00c4956
:10495c0001f516612046d847112150461ef02cf85f
:10496c0020f00cf8044a002321f074fb68642b6cd3
:10497c000344eb6484e600bff0490200bc6b0020ea
:10498c008c660000851dd96fdd800200d6f8803062
:10499c001b681b68b84a02f2147120469847012123
:1049ac0050461ef009f86be6d6f880301b681b6881
:1049bc00b14a02f51161204698479be7d5f8803043
:1049cc001b681b68ac4a02f638112046984799e7d9
:1049dc00d6f880305c68002236f8321c012023f0b7
:1049ec0023f926f80a0cb0f1ff3f45d00023a34a67
:1049fc004ff4007121f072fcf36b002b4ad12b4663
:104a0c000022012135f90a0c1ef025f94ff48063c0
:104a1c006b87d5f880301b681b68974a02f57c7150
:104a2c00204698476b782a78d5f88010096835f8b5
:104a3c00320c0290e8780190a8780090d1f804b07c
:104a4c008d4901f698112046d8470d2150461df08e
:104a5c00b3ff6a6f032135f90a0c14f0c9f810b3cf
:104a6c0035f90a0c21f03efb1ff088ff844a002325
:104a7c0021f0f0faa86603e6d6f880301b681b68b4
:104a8c007d4a02f5d96120469847012150461df018
:104a9c0093fff5e54b4636f8322c012136f90a0c1a
:104aac0017f070f8abe7d5f880301b681b68724aba
:104abc0002f5116120469847d2e796f88b30012b0e
:104acc002fd0d6f88030d3f804b036f90a0c22f087
:104adc0051f858bb1ff052ff694a002321f0bafa73
:104aec00b46e041b23f03afe664ba3fb00231b0c95
:104afc0003eb83039c427ff6c3ad36f90a0c1ff01f
:104b0c004dfe4ff6ff7326f80a3cd6f880301b6832
:104b1c001b680799584698470f2150461df04cffcb
:104b2c00aee50f2150461df047ffa9e536f90a0cfa
:104b3c0021f033fd1ff022ff514a002321f08afaa5
:104b4c007064336c0344f3640e2150461df034ff43
:104b5c0096e5504606f0fcfe01280ed002287ff4a4
:104b6c008fad0f2150461df027ff1ff007ff444a61
:104b7c00002321f06ffab06482e5342254214248bc
:104b8c0023f02efdb5f86c3073b1332b94bf1c465b
:104b9c0034241b1ba5f86c3022463b4935f90a0c12
:104bac0010f046fc8442edd035f90a0c22f078f86e
:104bbc0050460df06dfd63e516f8302c0b2136f9df
:104bcc00080c0df05bf9504606f0c2fe01280ed021
:104bdc0002287ff455ad122150461df0edfe1ff05a
:104bec00cdfe274a002321f035fab06448e5342283
:104bfc005521254823f0f4fcb6f86c40bcb14ff0bd
:104c0c00000b02e0002c00f0fa80332c40f2ee8016
:104c1c00343ca4b20bf1340b1ffa8bfb34221a492f
:104c2c0035f9080c1ef0fdfc3428ebd0e7e0a34668
:104c3c00e5e0b5f86c30a3eb0b0ba5f86cb0504667
:104c4c000df026fd1ce550461bf00efc36f90a0c47
:104c5c001ff0a4fd4ff6ff7326f80a3c10e55046f2
:104c6c001bf002fc36f9080c1ef08cfe08e5012145
:104c7c0050461df0a1fe03e58c660000f380020097
:104c8c00f0490200851dd96f0c00002022466549b1
:104c9c0035f9080c15f0a5ff35f9080c21f0a0fe2c
:104cac0004460b287ff6a1aa0c225e4935f9080ca4
:104cbc0015f097ff0c287ff40eaa5a4b1b684fea8d
:104ccc00136b4bea036b1a0202f47f024bea020be2
:104cdc001b0a03f47f434bea030b45f81cbc2b6dfa
:104cec00002b7ff40baabbf1000ffff602aa0123e5
:104cfc002b65d5f880301b685b68059a069904987b
:104d0c00984755f81c2c002a7ff438aa55f81c3cff
:104d1c0045f8183c08a935f9080c1cf055fd35f977
:104d2c00080c23f035fc22f015fe099cd5f88030d8
:104d3c001b6835f8322c0292020e0192c0f3074226
:104d4c000092d3f804b0c0f30723c2b2364901f580
:104d5c00b1610498d847d5f880301b68bdf8642041
:104d6c000292220e0192c4f307420092d3f804b0cf
:104d7c00c4f30723e2b22c4901f2bc510498d84782
:104d8c002c60bdf864302b841ff0f8fd274a0023fb
:104d9c0021f060f96864686655f81c3cab652b6db6
:104dac006b6555f8143ceb6535f9080c22f00bfae1
:104dbc0072e7049422461b4935f90c0c15f020fac5
:104dcc0055f81c3c002b7ff441ac95f88b30012b33
:104ddc007ff456ac082150461df0eefd1ff0cefdc1
:104dec00124a002321f036f9a86449e4a3441ffabf
:104dfc008bfb22460b4935f9080c1ef012fc35f9d9
:104e0c00080c0cf018fe00287ff413af002211469a
:104e1c0035f9080c1ff065fc32e41db0bdec028bbb
:104e2c00bde8f08f0c0000208c660000f0490200f9
:020000040000fa
:104e3c000c6900201c00000000000000da6a002051
:104e4c000200000000000000086b002004000000bd
:104e5c00000000000c6b00200400000000000000ab
:104e6c00106b0020040000000000000010680020ff
:104e7c002800000000000000146b0020040000005b
:104e8c000000000044690020180000000000000031
:104e9c00186b002004000000000000001c6b0020b8
:104eac000400000000000000206b00200400000043
:104ebc0000000000246b0020040000000000000033
:104ecc00386a00201000000000000000286b002051
:104edc0004000000000000002c6b00200400000007
:104eec00000000002062002098000000000000007c
:104efc00306b00200400000000000000346b002028
:104f0c000400000000000000e66a0020020000001f
:104f1c0000000000066b00200200000000000000f2
:104f2c00386b002004000000000000003c6b0020e7
:104f3c000400000000000000406b00200400000092
:104f4c0000000000eb6800200100000000000000e1
:104f5c00446b00200400000000000000486b00209f
:104f6c0004000000000000006a6c00200200000039
:104f7c000000000086660020020000000000000017
:104f8c004c6b00200400000000000000506b00205f
:104f9c000400000000000000546b0020040000001e
:104fac0000000000586b002004000000000000000e
:104fbc00486a002010000000000000005c6b00201c
:104fcc0004000000000000000e670020020000003a
:104fdc0000000000606b00200400000000000000d6
:104fec00886600204400000000000000006b0020d8
:104ffc000600000001000000ffffffffffff0000a4
:10500c00000000200800000000000000d86700200d
:10501c00380000000000000080610020a0000000ab
:10502c000000000052670020020000000100000098
:10503c00010000005c690020180000000000000066
:10504c00646b00200400000000000000686b00206e
:10505c000400000000000000cc6800201f000000cd
:10506c00000000006c6b0020040000000000000039
:10507c00706b002004000000000000009667002008
:10508c000200000000000000746b0020040000000f
:10509c0000000000704a0020d00700000000000053
:1050ac00786b002004000000000000007c6b0020e6
:1050bc000400000000000000806b002004000000d1
:1050cc0000000000846b00200400000000000000c1
:1050dc00366a00200200000000000000886b0020ef
:1050ec000400000000000000246a002011000000f1
:1050fc0000000000ec6800201f0000000000000011
:10510c008c6b00200400000000000000906b00205d
:10511c000400000000000000946b0020040000005c
:10512c0000000000986b002004000000000000004c
:10513c000b690020010000000000000085660020c3
:10514c000100000001000000010000009c6b002029
:10515c0004000000010000006400000008000020b2
:10516c0004000000000000000d670020010000009a
:10517c00000000005167002001000000000000004a
:10518c00a06b00200400000000000000a46b0020b5
:10519c0004000000000000006e6c00200200000003
:1051ac0000000000a86b00200400000000000000bc
:1051bc00ac6b00200400000000000000b06b00206d
:1051cc000400000000000000b46b0020040000008c
:1051dc000000000020600020bc0000000000000067
:1051ec00956700200100000000000000356a0020d7
:1051fc00010000000000000004590020b80100006c
:10520c0000000000d4690020140000000000000021
:10521c00b85d0020d800000000000000b86b002032
:10522c0004000000000000007c6c00200100000065
:10523c0000000000bc6b0020040000000000000017
:10524c000c0000203400000000000000c06b0020a7
:10525c000400000000000000586a0020100000004c
:10526c00000000007d6c0020010000000000000028
:10527c00706c00200200000000000000726c002026
:10528c000200000000000000c46b002004000000bd
:10529c0000000000686a0020100000000000000000
:1052ac00c86b00200400000000000000bc6400205b
:1052bc006000000000000000cc6b00200400000027
:1052cc0000000000d06b0020040000000000000073
:1052dc00786a00201000000000000000d46b002051
:1052ec000400000000000000e86a00200800000034
:1052fc0000000000400000200c0000000000000036
:10530c00b862002090000000000000004052002015
:10531c006002000000000000d86b002004000000b8
:10532c0000000000dc6b0020040000000000000006
:10533c00e06b00200400000000000000e46b002083
:10534c000400000000000000e86b002004000000d6
:10535c0000000000ec6b00200400000000000000c6
:10536c00f06b00200400000000000000886a0020a0
:10537c0010000000000000007469002018000000fc
:10538c0000000000ac6800202000000000000000bd
:10539c00f46b002004000000000000007e6c002074
:1053ac000100000000000000f86b00200400000069
:1053bc0000000000fc6b0020040000000100000055
:1053cc00ffffffff006c0020040000000000000045
:1053dc00046c002004000000000000004c000020c1
:1053ec003000000000000000dc600020a400000081
:1053fc00000000007c000020040000000000000001
:10540c007f6c00200100000000000000806c002078
:10541c000100000000000000086c002004000000e7
:10542c00000000000c6c00200400000000000000d4
:10543c00816c00200100000000000000106c0020b6
:10544c000400000001000000ffffffffa05400203b
:10545c005c02000000000000986a002010000000b0
:10546c0000000000826c0020010000000000000021
:10547c00800000202800000000000000146c0020b8
:10548c000400000000000000186c00200400000064
:10549c00000000001c6c0020040000000000000054
:1054ac00746c00200200000000000000836c0020df
:1054bc000100000000000000846c002001000000ce
:1054cc0000000000856c00200100000000000000be
:1054dc00206c002004000000000000006c6c002018
:1054ec00020000000100000000010000866c00209a
:1054fc000100000000000000876c0020010000008b
:10550c0000000000246c00200400000000000000db
:10551c00d86300208000000000000000f06a00202a
:10552c00080000000000000034660020510000005c
:10553c0000000000dc6a00200a00000000000000ef
:10554c0070400020000a000000000000286c0020c1
:10555c0004000000000000008c690020180000000e
:10556c000000000038680020280000000000000047
:10557c0048630020900000000000000088680020b4
:10558c002400000000000000a86a002010000000a9
:10559c00000000007020002000200000000000002f
:1055ac00dc6500205800000000000000fc560020c4
:1055bc000802000000000000286900201c00000008
:1055cc000100000000000000d41c0200001d0200bd
:1055dc00e01c0200d41c0200d41c020001000000dc
:1055ec00e869002014000000010000000101000027
:1055fc00cd850200bd850200dd85020052990000b8
:10560c00a80000201c00000000000000886c002096
:10561c000100000000000000c40000202c0000006d
:10562c00000000002c6c00200400000000000000b2
:10563c00306c00200400000000000000346c0020de
:10564c000400000000000000766c00200200000046
:10565c0000000000386c0020040000000000000076
:10566c003c6c00200400000000000000896c00204d
:10567c000100000000000000f0000020c00000004d
:10568c0000000000905e0020c80000000000000038
:10569c00585f0020c800000000000000b00100208e
:1056ac0009000000000000001c65002060000000e4
:1056bc0000000000786c00200200000000000000d8
:1056cc007a6c00200200000000000000cc66002074
:1056dc004100000000000000406c002004000000ad
:1056ec0000000000106700204100000000000000d6
:1056fc00546700204100000000000000686c00208e
:10570c00020000000000000060680020280000007b
:10571c000100000000000000ffff0000000000007e
:10572c00000000000000000000000000000000006d
:10573c00000000000000000000000000c00100207c
:10574c00541c000000000000a46900201800000098
:10575c0001000000201e0020502000206488020060
:10576c0000000000501e002000000000fc6900201a
:10577c001400000001000000746a0200786a020044
:10578c007c6a0200846a0200886a0200201e0020e3
:10579c004c02000000000000bc5a002090010000e8
:1057ac0000000000bc690020180000000000000090
:1057bc008a6c00200100000000000000106a00202c
:1057cc001400000001000000ff00000000000000b9
:1057dc0000000000ff000000ff000000b86a00207d
:1057ec000c00000000000000586400206400000061
:1057fc0000000000446c00200400000001000000c8
:10580c007c6500207c650020600000000100000029
:10581c00000000003876020058760200187602006c
:10582c00000000000000000000000000000000006c
:10583c00000000000000000000000000000000005c
:10584c00000000000000000000000000000000004c
:10585c00000000000000000000000000000000003c
:10586c00000000000000000000000000000000002c
:10587c004c5c00206c0100000100000043000000a3
:10588c00000000000000000000000000000000000c
:10589c0000000000000000000000000043000000b9
:1058ac0000000000000000000000000000000000ec
:1058bc000000000000000000000000004300000099
:1058cc0000000000000000000000000000000000cc
:1058dc000000000000000000000000004300000079
:1058ec0000000000000000000000000000000000ac
:1058fc000000000000000000000000004300000059
:10590c00000000000000000000000000000000008b
:10591c000000000000000000000000004300000038
:10592c00000000000000000000000000000000006b
:10593c000000000000000000000000004300000018
:10594c00000000000000000000000000000000004b
:10595c00000000000000000000000000537d020069
:10596c005570020000000000088e0100cd88020076
:10597c00cc880200cc880200cc880200cc880200c3
:10598c00cc880200cc880200cc880200cc880200b3
:10599c00cc880200ffffffffffffffffffffffffb1
:1059ac00ffff000001004153434949000000000083
:1059bc0000000000000000000000000000000000db
:1059cc000000000000004153434949000000000062
:1059dc0000000000000000000000000000000000bb
:1059ec000000000000000000486c002004000000d3
:1059fc00000000004c6c00200400000000000000bf
:105a0c00c46a00200b00000000000000cf6a0020d8
:105a1c000b00000000000000506c0020040000008f
:105a2c0000000000546c0020040000000000000086
:105a3c00586c00200400000000000000f86a0020f0
:105a4c0008000000010000002c8b02002c8b0200cf
:105a5c0098670020400000000100000001000000d9
:105a6c00000000004a0000000000000000000000e0
:105a7c00000000000000000000000000000000001a
:105a8c004a000000000000000000000000000000c0
:105a9c000000000000000000000000006c2000204e
